{
  "_format": "hh-sol-artifact-1",
  "contractName": "HelloWorld",
  "sourceName": "contracts/HelloWorld.sol",
  "abi": [
    {
      "inputs": [
        {
          "internalType": "uint256",
          "name": "expiry",
          "type": "uint256"
        },
        {
          "internalType": "string",
          "name": "job_loc",
          "type": "string"
        }
      ],
      "name": "createJobBid",
      "outputs": [],
      "stateMutability": "payable",
      "type": "function"
    },
    {
      "inputs": [],
      "name": "genUUID",
      "outputs": [
        {
          "internalType": "uint64",
          "name": "",
          "type": "uint64"
        }
      ],
      "stateMutability": "nonpayable",
      "type": "function"
    },
    {
      "inputs": [],
      "name": "id_count",
      "outputs": [
        {
          "internalType": "uint64",
          "name": "",
          "type": "uint64"
        }
      ],
      "stateMutability": "view",
      "type": "function"
    },
    {
      "inputs": [
        {
          "internalType": "uint64",
          "name": "",
          "type": "uint64"
        }
      ],
      "name": "jobBids",
      "outputs": [
        {
          "internalType": "uint256",
          "name": "amount",
          "type": "uint256"
        },
        {
          "internalType": "uint256",
          "name": "expiry",
          "type": "uint256"
        },
        {
          "internalType": "string",
          "name": "job_loc",
          "type": "string"
        },
        {
          "internalType": "address",
          "name": "owner",
          "type": "address"
        }
      ],
      "stateMutability": "view",
      "type": "function"
    },
    {
      "inputs": [
        {
          "internalType": "uint64",
          "name": "",
          "type": "uint64"
        }
      ],
      "name": "jobToCompleter",
      "outputs": [
        {
          "internalType": "address",
          "name": "",
          "type": "address"
        }
      ],
      "stateMutability": "view",
      "type": "function"
    },
    {
      "inputs": [
        {
          "internalType": "uint64",
          "name": "",
          "type": "uint64"
        }
      ],
      "name": "outputLocs",
      "outputs": [
        {
          "internalType": "string",
          "name": "",
          "type": "string"
        }
      ],
      "stateMutability": "view",
      "type": "function"
    },
    {
      "inputs": [
        {
          "internalType": "uint64",
          "name": "jobId",
          "type": "uint64"
        },
        {
          "internalType": "string",
          "name": "output_loc",
          "type": "string"
        }
      ],
      "name": "registerJobCompletion",
      "outputs": [],
      "stateMutability": "nonpayable",
      "type": "function"
    }
  ],
  "bytecode": "0x608060405260008060006101000a81548167ffffffffffffffff021916908367ffffffffffffffff16021790555034801561003957600080fd5b50610d05806100496000396000f3fe6080604052600436106100705760003560e01c8063821f5fa71161004e578063821f5fa7146100f9578063cc40770914610124578063d3f030d214610161578063e4739b21146101a157610070565b806313e5408e1461007557806315e08b7a146100b257806365fb5ee5146100dd575b600080fd5b34801561008157600080fd5b5061009c600480360381019061009791906105af565b6101ca565b6040516100a9919061066c565b60405180910390f35b3480156100be57600080fd5b506100c761026a565b6040516100d4919061069d565b60405180910390f35b6100f760048036038101906100f29190610823565b6102bc565b005b34801561010557600080fd5b5061010e610399565b60405161011b919061069d565b60405180910390f35b34801561013057600080fd5b5061014b600480360381019061014691906105af565b6103b1565b60405161015891906108c0565b60405180910390f35b34801561016d57600080fd5b50610188600480360381019061018391906105af565b6103e4565b60405161019894939291906108ea565b60405180910390f35b3480156101ad57600080fd5b506101c860048036038101906101c39190610936565b6104bc565b005b600360205280600052604060002060009150905080546101e9906109c1565b80601f0160208091040260200160405190810160405280929190818152602001828054610215906109c1565b80156102625780601f1061023757610100808354040283529160200191610262565b820191906000526020600020905b81548152906001019060200180831161024557829003601f168201915b505050505081565b600080600081819054906101000a900467ffffffffffffffff168092919061029190610a21565b91906101000a81548167ffffffffffffffff021916908367ffffffffffffffff160217905550905090565b60405180608001604052803481526020018381526020018281526020013373ffffffffffffffffffffffffffffffffffffffff16815250600160006102ff61026a565b67ffffffffffffffff1667ffffffffffffffff1681526020019081526020016000206000820151816000015560208201518160010155604082015181600201908161034a9190610bfd565b5060608201518160030160006101000a81548173ffffffffffffffffffffffffffffffffffffffff021916908373ffffffffffffffffffffffffffffffffffffffff1602179055509050505050565b60008054906101000a900467ffffffffffffffff1681565b60026020528060005260406000206000915054906101000a900473ffffffffffffffffffffffffffffffffffffffff1681565b6001602052806000526040600020600091509050806000015490806001015490806002018054610413906109c1565b80601f016020809104026020016040519081016040528092919081815260200182805461043f906109c1565b801561048c5780601f106104615761010080835404028352916020019161048c565b820191906000526020600020905b81548152906001019060200180831161046f57829003601f168201915b5050505050908060030160009054906101000a900473ffffffffffffffffffffffffffffffffffffffff16905084565b33600260008467ffffffffffffffff1667ffffffffffffffff16815260200190815260200160002060006101000a81548173ffffffffffffffffffffffffffffffffffffffff021916908373ffffffffffffffffffffffffffffffffffffffff16021790555080600360008467ffffffffffffffff1667ffffffffffffffff16815260200190815260200160002090816105569190610bfd565b505050565b6000604051905090565b600080fd5b600080fd5b600067ffffffffffffffff82169050919050565b61058c8161056f565b811461059757600080fd5b50565b6000813590506105a981610583565b92915050565b6000602082840312156105c5576105c4610565565b5b60006105d38482850161059a565b91505092915050565b600081519050919050565b600082825260208201905092915050565b60005b838110156106165780820151818401526020810190506105fb565b60008484015250505050565b6000601f19601f8301169050919050565b600061063e826105dc565b61064881856105e7565b93506106588185602086016105f8565b61066181610622565b840191505092915050565b600060208201905081810360008301526106868184610633565b905092915050565b6106978161056f565b82525050565b60006020820190506106b2600083018461068e565b92915050565b6000819050919050565b6106cb816106b8565b81146106d657600080fd5b50565b6000813590506106e8816106c2565b92915050565b600080fd5b600080fd5b7f4e487b7100000000000000000000000000000000000000000000000000000000600052604160045260246000fd5b61073082610622565b810181811067ffffffffffffffff8211171561074f5761074e6106f8565b5b80604052505050565b600061076261055b565b905061076e8282610727565b919050565b600067ffffffffffffffff82111561078e5761078d6106f8565b5b61079782610622565b9050602081019050919050565b82818337600083830152505050565b60006107c66107c184610773565b610758565b9050828152602081018484840111156107e2576107e16106f3565b5b6107ed8482856107a4565b509392505050565b600082601f83011261080a576108096106ee565b5b813561081a8482602086016107b3565b91505092915050565b6000806040838503121561083a57610839610565565b5b6000610848858286016106d9565b925050602083013567ffffffffffffffff8111156108695761086861056a565b5b610875858286016107f5565b9150509250929050565b600073ffffffffffffffffffffffffffffffffffffffff82169050919050565b60006108aa8261087f565b9050919050565b6108ba8161089f565b82525050565b60006020820190506108d560008301846108b1565b92915050565b6108e4816106b8565b82525050565b60006080820190506108ff60008301876108db565b61090c60208301866108db565b818103604083015261091e8185610633565b905061092d60608301846108b1565b95945050505050565b6000806040838503121561094d5761094c610565565b5b600061095b8582860161059a565b925050602083013567ffffffffffffffff81111561097c5761097b61056a565b5b610988858286016107f5565b9150509250929050565b7f4e487b7100000000000000000000000000000000000000000000000000000000600052602260045260246000fd5b600060028204905060018216806109d957607f821691505b6020821081036109ec576109eb610992565b5b50919050565b7f4e487b7100000000000000000000000000000000000000000000000000000000600052601160045260246000fd5b6000610a2c8261056f565b915067ffffffffffffffff8203610a4657610a456109f2565b5b600182019050919050565b60008190508160005260206000209050919050565b60006020601f8301049050919050565b600082821b905092915050565b600060088302610ab37fffffffffffffffffffffffffffffffffffffffffffffffffffffffffffffffff82610a76565b610abd8683610a76565b95508019841693508086168417925050509392505050565b6000819050919050565b6000610afa610af5610af0846106b8565b610ad5565b6106b8565b9050919050565b6000819050919050565b610b1483610adf565b610b28610b2082610b01565b848454610a83565b825550505050565b600090565b610b3d610b30565b610b48818484610b0b565b505050565b5b81811015610b6c57610b61600082610b35565b600181019050610b4e565b5050565b601f821115610bb157610b8281610a51565b610b8b84610a66565b81016020851015610b9a578190505b610bae610ba685610a66565b830182610b4d565b50505b505050565b600082821c905092915050565b6000610bd460001984600802610bb6565b1980831691505092915050565b6000610bed8383610bc3565b9150826002028217905092915050565b610c06826105dc565b67ffffffffffffffff811115610c1f57610c1e6106f8565b5b610c2982546109c1565b610c34828285610b70565b600060209050601f831160018114610c675760008415610c55578287015190505b610c5f8582610be1565b865550610cc7565b601f198416610c7586610a51565b60005b82811015610c9d57848901518255600182019150602085019450602081019050610c78565b86831015610cba5784890151610cb6601f891682610bc3565b8355505b6001600288020188555050505b50505050505056fea26469706673582212205159725b2c1a3c75bf95fc77288593dcec5b072a2c7496d0fc8421766fafe3aa64736f6c63430008110033",
  "linkReferences": {},
  "deployedLinkReferences": {}
}