{
  "_format": "hh-sol-artifact-1",
  "contractName": "HelloWorld",
  "sourceName": "contracts/HelloWorld.sol",
  "abi": [
    {
      "inputs": [
        {
          "internalType": "uint256",
          "name": "expiry",
          "type": "uint256"
        },
        {
          "internalType": "string",
          "name": "job_loc",
          "type": "string"
        }
      ],
      "name": "createJobBid",
      "outputs": [
        {
          "internalType": "uint64",
          "name": "",
          "type": "uint64"
        }
      ],
      "stateMutability": "payable",
      "type": "function"
    },
    {
      "inputs": [],
      "name": "genUUID",
      "outputs": [
        {
          "internalType": "uint64",
          "name": "",
          "type": "uint64"
        }
      ],
      "stateMutability": "nonpayable",
      "type": "function"
    },
    {
      "inputs": [],
      "name": "id_count",
      "outputs": [
        {
          "internalType": "uint64",
          "name": "",
          "type": "uint64"
        }
      ],
      "stateMutability": "view",
      "type": "function"
    },
    {
      "inputs": [
        {
          "internalType": "uint64",
          "name": "",
          "type": "uint64"
        }
      ],
      "name": "jobBids",
      "outputs": [
        {
          "internalType": "uint256",
          "name": "amount",
          "type": "uint256"
        },
        {
          "internalType": "uint256",
          "name": "expiry",
          "type": "uint256"
        },
        {
          "internalType": "string",
          "name": "job_loc",
          "type": "string"
        },
        {
          "internalType": "address",
          "name": "owner",
          "type": "address"
        }
      ],
      "stateMutability": "view",
      "type": "function"
    },
    {
      "inputs": [
        {
          "internalType": "uint64",
          "name": "",
          "type": "uint64"
        }
      ],
      "name": "jobToCompleter",
      "outputs": [
        {
          "internalType": "address payable",
          "name": "",
          "type": "address"
        }
      ],
      "stateMutability": "view",
      "type": "function"
    },
    {
      "inputs": [
        {
          "internalType": "uint64",
          "name": "",
          "type": "uint64"
        }
      ],
      "name": "outputLocs",
      "outputs": [
        {
          "internalType": "string",
          "name": "",
          "type": "string"
        }
      ],
      "stateMutability": "view",
      "type": "function"
    },
    {
      "inputs": [
        {
          "internalType": "uint64",
          "name": "jobId",
          "type": "uint64"
        },
        {
          "internalType": "string",
          "name": "output_loc",
          "type": "string"
        }
      ],
      "name": "registerJobCompletion",
      "outputs": [],
      "stateMutability": "nonpayable",
      "type": "function"
    }
  ],
  "bytecode": "0x608060405260008060006101000a81548167ffffffffffffffff021916908367ffffffffffffffff16021790555034801561003957600080fd5b50610dfe806100496000396000f3fe6080604052600436106100705760003560e01c8063821f5fa71161004e578063821f5fa71461010d578063cc40770914610138578063d3f030d214610175578063e4739b21146101b557610070565b806313e5408e1461007557806315e08b7a146100b257806365fb5ee5146100dd575b600080fd5b34801561008157600080fd5b5061009c60048036038101906100979190610687565b6101de565b6040516100a99190610744565b60405180910390f35b3480156100be57600080fd5b506100c761027e565b6040516100d49190610775565b60405180910390f35b6100f760048036038101906100f291906108fb565b6102d0565b6040516101049190610775565b60405180910390f35b34801561011957600080fd5b506101226103b9565b60405161012f9190610775565b60405180910390f35b34801561014457600080fd5b5061015f600480360381019061015a9190610687565b6103d1565b60405161016c9190610998565b60405180910390f35b34801561018157600080fd5b5061019c60048036038101906101979190610687565b610404565b6040516101ac94939291906109e3565b60405180910390f35b3480156101c157600080fd5b506101dc60048036038101906101d79190610a2f565b6104dc565b005b600360205280600052604060002060009150905080546101fd90610aba565b80601f016020809104026020016040519081016040528092919081815260200182805461022990610aba565b80156102765780601f1061024b57610100808354040283529160200191610276565b820191906000526020600020905b81548152906001019060200180831161025957829003601f168201915b505050505081565b600080600081819054906101000a900467ffffffffffffffff16809291906102a590610b1a565b91906101000a81548167ffffffffffffffff021916908367ffffffffffffffff160217905550905090565b6000806102db61027e565b905060405180608001604052803481526020018581526020018481526020013373ffffffffffffffffffffffffffffffffffffffff16815250600160008367ffffffffffffffff1667ffffffffffffffff168152602001908152602001600020600082015181600001556020820151816001015560408201518160020190816103649190610cf6565b5060608201518160030160006101000a81548173ffffffffffffffffffffffffffffffffffffffff021916908373ffffffffffffffffffffffffffffffffffffffff1602179055509050508091505092915050565b60008054906101000a900467ffffffffffffffff1681565b60026020528060005260406000206000915054906101000a900473ffffffffffffffffffffffffffffffffffffffff1681565b600160205280600052604060002060009150905080600001549080600101549080600201805461043390610aba565b80601f016020809104026020016040519081016040528092919081815260200182805461045f90610aba565b80156104ac5780601f10610481576101008083540402835291602001916104ac565b820191906000526020600020905b81548152906001019060200180831161048f57829003601f168201915b5050505050908060030160009054906101000a900473ffffffffffffffffffffffffffffffffffffffff16905084565b33600260008467ffffffffffffffff1667ffffffffffffffff16815260200190815260200160002060006101000a81548173ffffffffffffffffffffffffffffffffffffffff021916908373ffffffffffffffffffffffffffffffffffffffff16021790555080600360008467ffffffffffffffff1667ffffffffffffffff16815260200190815260200160002090816105769190610cf6565b50600260008367ffffffffffffffff1667ffffffffffffffff16815260200190815260200160002060009054906101000a900473ffffffffffffffffffffffffffffffffffffffff1673ffffffffffffffffffffffffffffffffffffffff166108fc600160008567ffffffffffffffff1667ffffffffffffffff168152602001908152602001600020600001549081150290604051600060405180830381858888f1935050505015801561062e573d6000803e3d6000fd5b505050565b6000604051905090565b600080fd5b600080fd5b600067ffffffffffffffff82169050919050565b61066481610647565b811461066f57600080fd5b50565b6000813590506106818161065b565b92915050565b60006020828403121561069d5761069c61063d565b5b60006106ab84828501610672565b91505092915050565b600081519050919050565b600082825260208201905092915050565b60005b838110156106ee5780820151818401526020810190506106d3565b60008484015250505050565b6000601f19601f8301169050919050565b6000610716826106b4565b61072081856106bf565b93506107308185602086016106d0565b610739816106fa565b840191505092915050565b6000602082019050818103600083015261075e818461070b565b905092915050565b61076f81610647565b82525050565b600060208201905061078a6000830184610766565b92915050565b6000819050919050565b6107a381610790565b81146107ae57600080fd5b50565b6000813590506107c08161079a565b92915050565b600080fd5b600080fd5b7f4e487b7100000000000000000000000000000000000000000000000000000000600052604160045260246000fd5b610808826106fa565b810181811067ffffffffffffffff82111715610827576108266107d0565b5b80604052505050565b600061083a610633565b905061084682826107ff565b919050565b600067ffffffffffffffff821115610866576108656107d0565b5b61086f826106fa565b9050602081019050919050565b82818337600083830152505050565b600061089e6108998461084b565b610830565b9050828152602081018484840111156108ba576108b96107cb565b5b6108c584828561087c565b509392505050565b600082601f8301126108e2576108e16107c6565b5b81356108f284826020860161088b565b91505092915050565b600080604083850312156109125761091161063d565b5b6000610920858286016107b1565b925050602083013567ffffffffffffffff81111561094157610940610642565b5b61094d858286016108cd565b9150509250929050565b600073ffffffffffffffffffffffffffffffffffffffff82169050919050565b600061098282610957565b9050919050565b61099281610977565b82525050565b60006020820190506109ad6000830184610989565b92915050565b6109bc81610790565b82525050565b60006109cd82610957565b9050919050565b6109dd816109c2565b82525050565b60006080820190506109f860008301876109b3565b610a0560208301866109b3565b8181036040830152610a17818561070b565b9050610a2660608301846109d4565b95945050505050565b60008060408385031215610a4657610a4561063d565b5b6000610a5485828601610672565b925050602083013567ffffffffffffffff811115610a7557610a74610642565b5b610a81858286016108cd565b9150509250929050565b7f4e487b7100000000000000000000000000000000000000000000000000000000600052602260045260246000fd5b60006002820490506001821680610ad257607f821691505b602082108103610ae557610ae4610a8b565b5b50919050565b7f4e487b7100000000000000000000000000000000000000000000000000000000600052601160045260246000fd5b6000610b2582610647565b915067ffffffffffffffff8203610b3f57610b3e610aeb565b5b600182019050919050565b60008190508160005260206000209050919050565b60006020601f8301049050919050565b600082821b905092915050565b600060088302610bac7fffffffffffffffffffffffffffffffffffffffffffffffffffffffffffffffff82610b6f565b610bb68683610b6f565b95508019841693508086168417925050509392505050565b6000819050919050565b6000610bf3610bee610be984610790565b610bce565b610790565b9050919050565b6000819050919050565b610c0d83610bd8565b610c21610c1982610bfa565b848454610b7c565b825550505050565b600090565b610c36610c29565b610c41818484610c04565b505050565b5b81811015610c6557610c5a600082610c2e565b600181019050610c47565b5050565b601f821115610caa57610c7b81610b4a565b610c8484610b5f565b81016020851015610c93578190505b610ca7610c9f85610b5f565b830182610c46565b50505b505050565b600082821c905092915050565b6000610ccd60001984600802610caf565b1980831691505092915050565b6000610ce68383610cbc565b9150826002028217905092915050565b610cff826106b4565b67ffffffffffffffff811115610d1857610d176107d0565b5b610d228254610aba565b610d2d828285610c69565b600060209050601f831160018114610d605760008415610d4e578287015190505b610d588582610cda565b865550610dc0565b601f198416610d6e86610b4a565b60005b82811015610d9657848901518255600182019150602085019450602081019050610d71565b86831015610db35784890151610daf601f891682610cbc565b8355505b6001600288020188555050505b50505050505056fea26469706673582212205fd0f16b835300091a80bb13525a3768914f5d4f00c6043434379fc1365a6b7264736f6c63430008110033",
  "linkReferences": {},
  "deployedLinkReferences": {}
}